{
  "abi": [
    {
      "inputs": [],
      "stateMutability": "nonpayable",
      "type": "constructor"
    },
    {
      "anonymous": false,
      "inputs": [
        {
          "indexed": false,
          "internalType": "address",
          "name": "asset",
          "type": "address"
        },
        {
          "indexed": false,
          "internalType": "uint256",
          "name": "amount",
          "type": "uint256"
        },
        {
          "indexed": false,
          "internalType": "uint256",
          "name": "premium",
          "type": "uint256"
        }
      ],
      "name": "FlashLoanReceived",
      "type": "event"
    },
    {
      "anonymous": false,
      "inputs": [
        {
          "indexed": false,
          "internalType": "address",
          "name": "asset",
          "type": "address"
        },
        {
          "indexed": false,
          "internalType": "uint256",
          "name": "amount",
          "type": "uint256"
        }
      ],
      "name": "FlashLoanRequested",
      "type": "event"
    },
    {
      "anonymous": false,
      "inputs": [
        {
          "indexed": false,
          "internalType": "address",
          "name": "to",
          "type": "address"
        },
        {
          "indexed": false,
          "internalType": "uint256",
          "name": "amount",
          "type": "uint256"
        }
      ],
      "name": "ProfitSend",
      "type": "event"
    },
    {
      "inputs": [],
      "name": "ADDRESSES_PROVIDER",
      "outputs": [
        {
          "internalType": "contract IPoolAddressesProvider",
          "name": "",
          "type": "address"
        }
      ],
      "stateMutability": "view",
      "type": "function"
    },
    {
      "inputs": [],
      "name": "LUSD",
      "outputs": [
        {
          "internalType": "address",
          "name": "",
          "type": "address"
        }
      ],
      "stateMutability": "view",
      "type": "function"
    },
    {
      "inputs": [],
      "name": "MIN_SQRT_RATIO",
      "outputs": [
        {
          "internalType": "uint160",
          "name": "",
          "type": "uint160"
        }
      ],
      "stateMutability": "view",
      "type": "function"
    },
    {
      "inputs": [],
      "name": "POOL",
      "outputs": [
        {
          "internalType": "contract IPool",
          "name": "",
          "type": "address"
        }
      ],
      "stateMutability": "view",
      "type": "function"
    },
    {
      "inputs": [],
      "name": "USDC",
      "outputs": [
        {
          "internalType": "address",
          "name": "",
          "type": "address"
        }
      ],
      "stateMutability": "view",
      "type": "function"
    },
    {
      "inputs": [],
      "name": "WETH",
      "outputs": [
        {
          "internalType": "address",
          "name": "",
          "type": "address"
        }
      ],
      "stateMutability": "view",
      "type": "function"
    },
    {
      "inputs": [],
      "name": "bamm",
      "outputs": [
        {
          "internalType": "contract IBAmm",
          "name": "",
          "type": "address"
        }
      ],
      "stateMutability": "view",
      "type": "function"
    },
    {
      "inputs": [
        {
          "internalType": "address",
          "name": "_address",
          "type": "address"
        }
      ],
      "name": "changeAuthorization",
      "outputs": [],
      "stateMutability": "nonpayable",
      "type": "function"
    },
    {
      "inputs": [
        {
          "internalType": "address",
          "name": "",
          "type": "address"
        },
        {
          "internalType": "uint256",
          "name": "_amount",
          "type": "uint256"
        },
        {
          "internalType": "uint256",
          "name": "_premium",
          "type": "uint256"
        },
        {
          "internalType": "address",
          "name": "",
          "type": "address"
        },
        {
          "internalType": "bytes",
          "name": "data",
          "type": "bytes"
        }
      ],
      "name": "executeOperation",
      "outputs": [
        {
          "internalType": "bool",
          "name": "",
          "type": "bool"
        }
      ],
      "stateMutability": "nonpayable",
      "type": "function"
    },
    {
      "inputs": [],
      "name": "iWETH9",
      "outputs": [
        {
          "internalType": "contract IWETH9",
          "name": "",
          "type": "address"
        }
      ],
      "stateMutability": "view",
      "type": "function"
    },
    {
      "inputs": [
        {
          "internalType": "address",
          "name": "",
          "type": "address"
        }
      ],
      "name": "isAuthorized",
      "outputs": [
        {
          "internalType": "bool",
          "name": "",
          "type": "bool"
        }
      ],
      "stateMutability": "view",
      "type": "function"
    },
    {
      "inputs": [],
      "name": "poolFee",
      "outputs": [
        {
          "internalType": "uint24",
          "name": "",
          "type": "uint24"
        }
      ],
      "stateMutability": "view",
      "type": "function"
    },
    {
      "inputs": [],
      "name": "requestFlashLoan",
      "outputs": [],
      "stateMutability": "nonpayable",
      "type": "function"
    },
    {
      "inputs": [],
      "name": "swapRouter",
      "outputs": [
        {
          "internalType": "contract ISwapRouter",
          "name": "",
          "type": "address"
        }
      ],
      "stateMutability": "view",
      "type": "function"
    },
    {
      "stateMutability": "payable",
      "type": "receive"
    }
  ],
  "bytecode": {
    "object": "0x61012060405273e592427a0aece92de3edee1f18e0157c0586156460c05273896d8a30c32ead64f2e1195c2c8e0932be7dc20b60e05273c02aaa39b223fe8d0a0e5c4f27ead9083c756cc26101005234801561005a57600080fd5b50732f39d218133afab8f2b819b1066c7e434ad94e9e60808190526040805163026b1d5f60e01b81529051829163026b1d5f9160048083019260209291908290030181865afa1580156100b1573d6000803e3d6000fd5b505050506040513d601f19601f820116820180604052508101906100d59190610101565b6001600160a01b031660a05250336000908152602081905260409020805460ff19166001179055610131565b60006020828403121561011357600080fd5b81516001600160a01b038116811461012a57600080fd5b9392505050565b60805160a05160c05160e051610100516111576101d660003960008181610200015281816104ac0152818161052101528181610582015281816108220152610bff01526000818161019c015281816106f5015281816107aa015281816109e801528181610a8d0152610b2c0152600081816102cd0152818161054201526106660152600081816102490152818161047a0152610bc80152600060ff01526111576000f3fe6080604052600436106100e15760003560e01c80637535d2461161007f578063c31c9c0711610059578063c31c9c07146102bb578063cf59d563146102ef578063ee8847ff14610317578063fe9fbb801461033057600080fd5b80637535d2461461023757806389a302711461026b578063ad5c46481461029357600080fd5b80631456d23a116100bb5780631456d23a1461018a5780631b11d0ff146101be57806361146017146101ee5780636eb06bfc1461022257600080fd5b80630542975c146100ed578063089fe6aa1461013e578063139ceb0e1461016857600080fd5b366100e857005b600080fd5b3480156100f957600080fd5b506101217f000000000000000000000000000000000000000000000000000000000000000081565b6040516001600160a01b0390911681526020015b60405180910390f35b34801561014a57600080fd5b506101546101f481565b60405162ffffff9091168152602001610135565b34801561017457600080fd5b50610188610183366004610e02565b610360565b005b34801561019657600080fd5b506101217f000000000000000000000000000000000000000000000000000000000000000081565b3480156101ca57600080fd5b506101de6101d9366004610e1f565b6103ed565b6040519015158152602001610135565b3480156101fa57600080fd5b506101217f000000000000000000000000000000000000000000000000000000000000000081565b34801561022e57600080fd5b50610188610985565b34801561024357600080fd5b506101217f000000000000000000000000000000000000000000000000000000000000000081565b34801561027757600080fd5b5061012173a0b86991c6218b36c1d19d4a2e9eb0ce3606eb4881565b34801561029f57600080fd5b5061012173c02aaa39b223fe8d0a0e5c4f27ead9083c756cc281565b3480156102c757600080fd5b506101217f000000000000000000000000000000000000000000000000000000000000000081565b3480156102fb57600080fd5b50610121735f98805a4e8be255a32880fdec7f6728c6568ba081565b34801561032357600080fd5b506101216401000276a381565b34801561033c57600080fd5b506101de61034b366004610e02565b60006020819052908152604090205460ff1681565b3360009081526020819052604090205460ff166103c45760405162461bcd60e51b815260206004820152601d60248201527f42616d6d4172626974726167653a206e6f7420617574686f72697a656400000060448201526064015b60405180910390fd5b6001600160a01b03166000908152602081905260409020805460ff19811660ff90911615179055565b600080806103fd84860186610ec9565b6040805173c02aaa39b223fe8d0a0e5c4f27ead9083c756cc28152602081018c90529081018a905291935091507f1343998c8d6022eb07eb12064b021c43c49447832d6f53815b05b4b8f43a9ced9060600160405180910390a160006104638989610cb3565b60405163095ea7b360e01b81526001600160a01b037f000000000000000000000000000000000000000000000000000000000000000081166004830152602482018390529192507f00000000000000000000000000000000000000000000000000000000000000009091169063095ea7b3906044016020604051808303816000875af11580156104f7573d6000803e3d6000fd5b505050506040513d601f19601f8201168201806040525081019061051b9190610ef5565b506105677f00000000000000000000000000000000000000000000000000000000000000007f00000000000000000000000000000000000000000000000000000000000000008b610cc6565b6040805160a081019091526bffffffffffffffffffffffff197f000000000000000000000000000000000000000000000000000000000000000060601b1660c0820152607d60ea1b60d482018190527314170d3238c43166d83a33a945d3d619c6c0dd6960631b60d783015260eb8201527302fcc402d2745f12ad194407ef63fb394632b45d60651b60ee82015260009080610102810160408051601f198184030181529181529082523060208301524290820152606081018c905260800161063d612710610637876032610dc6565b90610dd2565b6106479086610f2d565b905260405163c04b8d5960e01b81529091506000906001600160a01b037f0000000000000000000000000000000000000000000000000000000000000000169063c04b8d599061069b908590600401610fa0565b6020604051808303816000875af11580156106ba573d6000803e3d6000fd5b505050506040513d601f19601f820116820180604052508101906106de9190610ff8565b60405163095ea7b360e01b81526001600160a01b037f000000000000000000000000000000000000000000000000000000000000000016600482015260248101829052909150735f98805a4e8be255a32880fdec7f6728c6568ba09063095ea7b3906044016020604051808303816000875af1158015610762573d6000803e3d6000fd5b505050506040513d601f19601f820116820180604052508101906107869190610ef5565b506040516336cd320560e11b815260048101829052602481018490523060448201527f00000000000000000000000000000000000000000000000000000000000000006001600160a01b031690636d9a640a906064016020604051808303816000875af11580156107fb573d6000803e3d6000fd5b505050506040513d601f19601f8201168201806040525081019061081f9190610ff8565b507f00000000000000000000000000000000000000000000000000000000000000006001600160a01b031663d0e30db0846040518263ffffffff1660e01b81526004016000604051808303818588803b15801561087b57600080fd5b505af115801561088f573d6000803e3d6000fd5b5050604051479350600092506001600160a01b038916915083908381818185875af1925050503d80600081146108e1576040519150601f19603f3d011682016040523d82523d6000602084013e6108e6565b606091505b505090508061092f5760405162461bcd60e51b815260206004820152601560248201527402330b4b632b2103a379039b2b7321022ba3432b91605d1b60448201526064016103bb565b604080516001600160a01b0389168152602081018490527f3887c08a077083f9bd307a30d906108e8b17c3041db49ca0c6d14b1952717bf5910160405180910390a15060019d9c50505050505050505050505050565b3360009081526020819052604090205460ff166109e45760405162461bcd60e51b815260206004820152601d60248201527f42616d6d4172626974726167653a206e6f7420617574686f72697a656400000060448201526064016103bb565b60007f00000000000000000000000000000000000000000000000000000000000000006001600160a01b031663bfca6c116040518163ffffffff1660e01b8152600401606060405180830381865afa158015610a44573d6000803e3d6000fd5b505050506040513d601f19601f82011682018060405250810190610a689190611011565b604051630633f15b60e51b815260048101829052909350600092506001600160a01b037f000000000000000000000000000000000000000000000000000000000000000016915063c67e2b60906024016040805180830381865afa158015610ad4573d6000803e3d6000fd5b505050506040513d601f19601f82011682018060405250810190610af8919061103f565b915060009050610b088383610dde565b604051630633f15b60e51b8152600481018290529091506000906001600160a01b037f0000000000000000000000000000000000000000000000000000000000000000169063c67e2b60906024016040805180830381865afa158015610b72573d6000803e3d6000fd5b505050506040513d601f19601f82011682018060405250810190610b96919061103f565b506040805133602082015280820185905281518082038301815260608201928390526310ac2ddf60e21b9092529192507f00000000000000000000000000000000000000000000000000000000000000006001600160a01b0316916342b0b77c91610c2d9130917f000000000000000000000000000000000000000000000000000000000000000091879190600090606401611063565b600060405180830381600087803b158015610c4757600080fd5b505af1158015610c5b573d6000803e3d6000fd5b50506040805173c02aaa39b223fe8d0a0e5c4f27ead9083c756cc28152602081018590527f36b2acb66143c7d81ece04083e3157526cab9360d579ecd6ed68c9e7481123f1935001905060405180910390a150505050565b6000610cbf82846110ac565b9392505050565b604080516001600160a01b038481166024830152604480830185905283518084039091018152606490920183526020820180516001600160e01b031663095ea7b360e01b1790529151600092839290871691610d2291906110c4565b6000604051808303816000865af19150503d8060008114610d5f576040519150601f19603f3d011682016040523d82523d6000602084013e610d64565b606091505b5091509150818015610d8e575080511580610d8e575080806020019051810190610d8e9190610ef5565b610dbf5760405162461bcd60e51b8152602060048201526002602482015261534160f01b60448201526064016103bb565b5050505050565b6000610cbf82846110e0565b6000610cbf82846110ff565b6000610cbf8284610f2d565b6001600160a01b0381168114610dff57600080fd5b50565b600060208284031215610e1457600080fd5b8135610cbf81610dea565b60008060008060008060a08789031215610e3857600080fd5b8635610e4381610dea565b955060208701359450604087013593506060870135610e6181610dea565b9250608087013567ffffffffffffffff80821115610e7e57600080fd5b818901915089601f830112610e9257600080fd5b813581811115610ea157600080fd5b8a6020828501011115610eb357600080fd5b6020830194508093505050509295509295509295565b60008060408385031215610edc57600080fd5b8235610ee781610dea565b946020939093013593505050565b600060208284031215610f0757600080fd5b81518015158114610cbf57600080fd5b634e487b7160e01b600052601160045260246000fd5b600082821015610f3f57610f3f610f17565b500390565b60005b83811015610f5f578181015183820152602001610f47565b83811115610f6e576000848401525b50505050565b60008151808452610f8c816020860160208601610f44565b601f01601f19169290920160200192915050565b602081526000825160a06020840152610fbc60c0840182610f74565b905060018060a01b0360208501511660408401526040840151606084015260608401516080840152608084015160a08401528091505092915050565b60006020828403121561100a57600080fd5b5051919050565b60008060006060848603121561102657600080fd5b8351925060208401519150604084015190509250925092565b6000806040838503121561105257600080fd5b505080516020909101519092909150565b6001600160a01b038681168252851660208201526040810184905260a06060820181905260009061109690830185610f74565b905061ffff831660808301529695505050505050565b600082198211156110bf576110bf610f17565b500190565b600082516110d6818460208701610f44565b9190910192915050565b60008160001904831182151516156110fa576110fa610f17565b500290565b60008261111c57634e487b7160e01b600052601260045260246000fd5b50049056fea2646970667358221220d501938d8280d7e978262f47aa15886a6b951e11a0892d073758c960457832a764736f6c634300080a0033",
    "linkReferences": {}
  },
  "methodIdentifiers": {
    "ADDRESSES_PROVIDER()": "0542975c",
    "LUSD()": "cf59d563",
    "MIN_SQRT_RATIO()": "ee8847ff",
    "POOL()": "7535d246",
    "USDC()": "89a30271",
    "WETH()": "ad5c4648",
    "bamm()": "1456d23a",
    "changeAuthorization(address)": "139ceb0e",
    "executeOperation(address,uint256,uint256,address,bytes)": "1b11d0ff",
    "iWETH9()": "61146017",
    "isAuthorized(address)": "fe9fbb80",
    "poolFee()": "089fe6aa",
    "requestFlashLoan()": "6eb06bfc",
    "swapRouter()": "c31c9c07"
  },
  "id": 24
}